{
  "_format": "hh-sol-artifact-1",
  "contractName": "Swapper",
  "sourceName": "contracts/Swapper.sol",
  "abi": [
    {
      "inputs": [],
      "stateMutability": "nonpayable",
      "type": "constructor"
    },
    {
      "inputs": [
        {
          "internalType": "address",
          "name": "token_",
          "type": "address"
        },
        {
          "internalType": "uint256",
          "name": "amount",
          "type": "uint256"
        }
      ],
      "name": "swap",
      "outputs": [],
      "stateMutability": "nonpayable",
      "type": "function"
    },
    {
      "inputs": [
        {
          "internalType": "uint256",
          "name": "amount",
          "type": "uint256"
        }
      ],
      "name": "swapAforC",
      "outputs": [],
      "stateMutability": "nonpayable",
      "type": "function"
    },
    {
      "inputs": [
        {
          "internalType": "uint256",
          "name": "amount",
          "type": "uint256"
        }
      ],
      "name": "swapBforC",
      "outputs": [],
      "stateMutability": "nonpayable",
      "type": "function"
    },
    {
      "inputs": [],
      "name": "tokenA",
      "outputs": [
        {
          "internalType": "contract IERC20",
          "name": "",
          "type": "address"
        }
      ],
      "stateMutability": "view",
      "type": "function"
    },
    {
      "inputs": [],
      "name": "tokenB",
      "outputs": [
        {
          "internalType": "contract IERC20",
          "name": "",
          "type": "address"
        }
      ],
      "stateMutability": "view",
      "type": "function"
    },
    {
      "inputs": [],
      "name": "tokenC",
      "outputs": [
        {
          "internalType": "contract IERC20",
          "name": "",
          "type": "address"
        }
      ],
      "stateMutability": "view",
      "type": "function"
    },
    {
      "inputs": [
        {
          "internalType": "address",
          "name": "token_",
          "type": "address"
        },
        {
          "internalType": "uint256",
          "name": "amount",
          "type": "uint256"
        }
      ],
      "name": "unswap",
      "outputs": [],
      "stateMutability": "nonpayable",
      "type": "function"
    },
    {
      "inputs": [
        {
          "internalType": "uint256",
          "name": "amount",
          "type": "uint256"
        }
      ],
      "name": "unswapCforA",
      "outputs": [],
      "stateMutability": "nonpayable",
      "type": "function"
    },
    {
      "inputs": [
        {
          "internalType": "uint256",
          "name": "amount",
          "type": "uint256"
        }
      ],
      "name": "unswapCforB",
      "outputs": [],
      "stateMutability": "nonpayable",
      "type": "function"
    }
  ],
  "bytecode": "0x60806040523480156200001157600080fd5b5069d3c21bcecceda1000000336040516200002c90620001a6565b620000399291906200036e565b604051809103906000f08015801562000056573d6000803e3d6000fd5b506000806101000a81548173ffffffffffffffffffffffffffffffffffffffff021916908373ffffffffffffffffffffffffffffffffffffffff16021790555069d3c21bcecceda100000033604051620000b090620001a6565b620000bd92919062000317565b604051809103906000f080158015620000da573d6000803e3d6000fd5b50600160006101000a81548173ffffffffffffffffffffffffffffffffffffffff021916908373ffffffffffffffffffffffffffffffffffffffff16021790555069d3c21bcecceda1000000336040516200013590620001a6565b62000142929190620002c0565b604051809103906000f0801580156200015f573d6000803e3d6000fd5b50600260006101000a81548173ffffffffffffffffffffffffffffffffffffffff021916908373ffffffffffffffffffffffffffffffffffffffff1602179055506200051e565b611b05806200136a83390190565b620001bf81620003d6565b82525050565b620001d08162000414565b82525050565b6000620001e5600383620003c5565b9150620001f28262000428565b602082019050919050565b60006200020c600683620003c5565b9150620002198262000451565b602082019050919050565b600062000233600383620003c5565b915062000240826200047a565b602082019050919050565b60006200025a600383620003c5565b91506200026782620004a3565b602082019050919050565b600062000281600683620003c5565b91506200028e82620004cc565b602082019050919050565b6000620002a8600683620003c5565b9150620002b582620004f5565b602082019050919050565b60006080820190508181036000830152620002db81620001fd565b90508181036020830152620002f08162000224565b9050620003016040830185620001c5565b620003106060830184620001b4565b9392505050565b60006080820190508181036000830152620003328162000272565b9050818103602083015262000347816200024b565b9050620003586040830185620001c5565b620003676060830184620001b4565b9392505050565b60006080820190508181036000830152620003898162000299565b905081810360208301526200039e81620001d6565b9050620003af6040830185620001c5565b620003be6060830184620001b4565b9392505050565b600082825260208201905092915050565b6000620003e382620003ea565b9050919050565b600073ffffffffffffffffffffffffffffffffffffffff82169050919050565b6000819050919050565b600062000421826200040a565b9050919050565b7f544b410000000000000000000000000000000000000000000000000000000000600082015250565b7f746f6b656e430000000000000000000000000000000000000000000000000000600082015250565b7f544b430000000000000000000000000000000000000000000000000000000000600082015250565b7f544b420000000000000000000000000000000000000000000000000000000000600082015250565b7f746f6b656e420000000000000000000000000000000000000000000000000000600082015250565b7f746f6b656e410000000000000000000000000000000000000000000000000000600082015250565b610e3c806200052e6000396000f3fe608060405234801561001057600080fd5b50600436106100935760003560e01c8063d004f0f711610066578063d004f0f71461010e578063d6372fc31461012a578063f3db2e4c14610146578063f5166c5a14610162578063fa66421f1461017e57610093565b80630fc63d101461009857806334fdf901146100b65780635f64b55b146100d2578063c483a308146100f0575b600080fd5b6100a061019a565b6040516100ad9190610c49565b60405180910390f35b6100d060048036038101906100cb9190610ab5565b6101be565b005b6100da6101eb565b6040516100e79190610c49565b60405180910390f35b6100f8610211565b6040516101059190610c49565b60405180910390f35b61012860048036038101906101239190610a48565b610237565b005b610144600480360381019061013f9190610a48565b610245565b005b610160600480360381019061015b9190610ab5565b610253565b005b61017c60048036038101906101779190610ab5565b610282565b005b61019860048036038101906101939190610ab5565b6102af565b005b60008054906101000a900473ffffffffffffffffffffffffffffffffffffffff1681565b6101e860008054906101000a900473ffffffffffffffffffffffffffffffffffffffff16826102de565b50565b600160009054906101000a900473ffffffffffffffffffffffffffffffffffffffff1681565b600260009054906101000a900473ffffffffffffffffffffffffffffffffffffffff1681565b61024182826102de565b5050565b61024f8282610658565b5050565b61027f600160009054906101000a900473ffffffffffffffffffffffffffffffffffffffff16826102de565b50565b6102ac60008054906101000a900473ffffffffffffffffffffffffffffffffffffffff1682610658565b50565b6102db600160009054906101000a900473ffffffffffffffffffffffffffffffffffffffff1682610658565b50565b808273ffffffffffffffffffffffffffffffffffffffff1663dd62ed3e33306040518363ffffffff1660e01b815260040161031a929190610bc0565b60206040518083038186803b15801561033257600080fd5b505afa158015610346573d6000803e3d6000fd5b505050506040513d601f19601f8201168201806040525081019061036a9190610ae2565b10156103ab576040517f08c379a00000000000000000000000000000000000000000000000000000000081526004016103a290610ca4565b60405180910390fd5b80600260009054906101000a900473ffffffffffffffffffffffffffffffffffffffff1673ffffffffffffffffffffffffffffffffffffffff166370a08231306040518263ffffffff1660e01b81526004016104079190610ba5565b60206040518083038186803b15801561041f57600080fd5b505afa158015610433573d6000803e3d6000fd5b505050506040513d601f19601f820116820180604052508101906104579190610ae2565b1015610498576040517f08c379a000000000000000000000000000000000000000000000000000000000815260040161048f90610c84565b60405180910390fd5b8173ffffffffffffffffffffffffffffffffffffffff166323b872dd3330846040518463ffffffff1660e01b81526004016104d593929190610be9565b602060405180830381600087803b1580156104ef57600080fd5b505af1158015610503573d6000803e3d6000fd5b505050506040513d601f19601f820116820180604052508101906105279190610a88565b610566576040517f08c379a000000000000000000000000000000000000000000000000000000000815260040161055d90610c64565b60405180910390fd5b600260009054906101000a900473ffffffffffffffffffffffffffffffffffffffff1673ffffffffffffffffffffffffffffffffffffffff1663a9059cbb33836040518363ffffffff1660e01b81526004016105c3929190610c20565b602060405180830381600087803b1580156105dd57600080fd5b505af11580156105f1573d6000803e3d6000fd5b505050506040513d601f19601f820116820180604052508101906106159190610a88565b610654576040517f08c379a000000000000000000000000000000000000000000000000000000000815260040161064b90610c64565b60405180910390fd5b5050565b80600260009054906101000a900473ffffffffffffffffffffffffffffffffffffffff1673ffffffffffffffffffffffffffffffffffffffff1663dd62ed3e33306040518363ffffffff1660e01b81526004016106b6929190610bc0565b60206040518083038186803b1580156106ce57600080fd5b505afa1580156106e2573d6000803e3d6000fd5b505050506040513d601f19601f820116820180604052508101906107069190610ae2565b1015610747576040517f08c379a000000000000000000000000000000000000000000000000000000000815260040161073e90610ca4565b60405180910390fd5b80600260009054906101000a900473ffffffffffffffffffffffffffffffffffffffff1673ffffffffffffffffffffffffffffffffffffffff166370a08231306040518263ffffffff1660e01b81526004016107a39190610ba5565b60206040518083038186803b1580156107bb57600080fd5b505afa1580156107cf573d6000803e3d6000fd5b505050506040513d601f19601f820116820180604052508101906107f39190610ae2565b1015610834576040517f08c379a000000000000000000000000000000000000000000000000000000000815260040161082b90610c84565b60405180910390fd5b8173ffffffffffffffffffffffffffffffffffffffff166323b872dd3330846040518463ffffffff1660e01b815260040161087193929190610be9565b602060405180830381600087803b15801561088b57600080fd5b505af115801561089f573d6000803e3d6000fd5b505050506040513d601f19601f820116820180604052508101906108c39190610a88565b610902576040517f08c379a00000000000000000000000000000000000000000000000000000000081526004016108f990610c64565b60405180910390fd5b600260009054906101000a900473ffffffffffffffffffffffffffffffffffffffff1673ffffffffffffffffffffffffffffffffffffffff1663a9059cbb33836040518363ffffffff1660e01b815260040161095f929190610c20565b602060405180830381600087803b15801561097957600080fd5b505af115801561098d573d6000803e3d6000fd5b505050506040513d601f19601f820116820180604052508101906109b19190610a88565b6109f0576040517f08c379a00000000000000000000000000000000000000000000000000000000081526004016109e790610c64565b60405180910390fd5b5050565b600081359050610a0381610dc1565b92915050565b600081519050610a1881610dd8565b92915050565b600081359050610a2d81610def565b92915050565b600081519050610a4281610def565b92915050565b60008060408385031215610a5f57610a5e610d41565b5b6000610a6d858286016109f4565b9250506020610a7e85828601610a1e565b9150509250929050565b600060208284031215610a9e57610a9d610d41565b5b6000610aac84828501610a09565b91505092915050565b600060208284031215610acb57610aca610d41565b5b6000610ad984828501610a1e565b91505092915050565b600060208284031215610af857610af7610d41565b5b6000610b0684828501610a33565b91505092915050565b610b1881610cd5565b82525050565b610b2781610d1d565b82525050565b6000610b3a600783610cc4565b9150610b4582610d46565b602082019050919050565b6000610b5d601f83610cc4565b9150610b6882610d6f565b602082019050919050565b6000610b80601883610cc4565b9150610b8b82610d98565b602082019050919050565b610b9f81610d13565b82525050565b6000602082019050610bba6000830184610b0f565b92915050565b6000604082019050610bd56000830185610b0f565b610be26020830184610b0f565b9392505050565b6000606082019050610bfe6000830186610b0f565b610c0b6020830185610b0f565b610c186040830184610b96565b949350505050565b6000604082019050610c356000830185610b0f565b610c426020830184610b96565b9392505050565b6000602082019050610c5e6000830184610b1e565b92915050565b60006020820190508181036000830152610c7d81610b2d565b9050919050565b60006020820190508181036000830152610c9d81610b50565b9050919050565b60006020820190508181036000830152610cbd81610b73565b9050919050565b600082825260208201905092915050565b6000610ce082610cf3565b9050919050565b60008115159050919050565b600073ffffffffffffffffffffffffffffffffffffffff82169050919050565b6000819050919050565b6000610d2882610d2f565b9050919050565b6000610d3a82610cf3565b9050919050565b600080fd5b7f4572726f72303100000000000000000000000000000000000000000000000000600082015250565b7f7472616e7366657220616d6f756e7420737572706173732062616c616e636500600082015250565b7f616d6f756e74207375727061737320616c6c6f77616e63650000000000000000600082015250565b610dca81610cd5565b8114610dd557600080fd5b50565b610de181610ce7565b8114610dec57600080fd5b50565b610df881610d13565b8114610e0357600080fd5b5056fea26469706673582212203ac2d521e26f3c0d90f9f93cbe49314a55a079d5132bf44b058c4eb54468745e64736f6c6343000806003360806040523480156200001157600080fd5b5060405162001b0538038062001b05833981810160405281019062000037919062000368565b83838160039080519060200190620000519291906200020c565b5080600490805190602001906200006a9291906200020c565b5050506200007f81836200008960201b60201c565b505050506200074b565b600073ffffffffffffffffffffffffffffffffffffffff168273ffffffffffffffffffffffffffffffffffffffff161415620000fc576040517f08c379a0000000000000000000000000000000000000000000000000000000008152600401620000f39062000450565b60405180910390fd5b62000110600083836200020260201b60201c565b8060026000828254620001249190620004ff565b92505081905550806000808473ffffffffffffffffffffffffffffffffffffffff1673ffffffffffffffffffffffffffffffffffffffff16815260200190815260200160002060008282546200017b9190620004ff565b925050819055508173ffffffffffffffffffffffffffffffffffffffff16600073ffffffffffffffffffffffffffffffffffffffff167fddf252ad1be2c89b69c2b068fc378daa952ba7f163c4a11628f55a4df523b3ef83604051620001e2919062000472565b60405180910390a3620001fe600083836200020760201b60201c565b5050565b505050565b505050565b8280546200021a90620005d0565b90600052602060002090601f0160209004810192826200023e57600085556200028a565b82601f106200025957805160ff19168380011785556200028a565b828001600101855582156200028a579182015b82811115620002895782518255916020019190600101906200026c565b5b5090506200029991906200029d565b5090565b5b80821115620002b85760008160009055506001016200029e565b5090565b6000620002d3620002cd84620004b8565b6200048f565b905082815260208101848484011115620002f257620002f1620006ce565b5b620002ff8482856200059a565b509392505050565b600081519050620003188162000717565b92915050565b600082601f830112620003365762000335620006c9565b5b815162000348848260208601620002bc565b91505092915050565b600081519050620003628162000731565b92915050565b60008060008060808587031215620003855762000384620006d8565b5b600085015167ffffffffffffffff811115620003a657620003a5620006d3565b5b620003b4878288016200031e565b945050602085015167ffffffffffffffff811115620003d857620003d7620006d3565b5b620003e6878288016200031e565b9350506040620003f98782880162000351565b92505060606200040c8782880162000307565b91505092959194509250565b600062000427601f83620004ee565b91506200043482620006ee565b602082019050919050565b6200044a8162000590565b82525050565b600060208201905081810360008301526200046b8162000418565b9050919050565b60006020820190506200048960008301846200043f565b92915050565b60006200049b620004ae565b9050620004a9828262000606565b919050565b6000604051905090565b600067ffffffffffffffff821115620004d657620004d56200069a565b5b620004e182620006dd565b9050602081019050919050565b600082825260208201905092915050565b60006200050c8262000590565b9150620005198362000590565b9250827fffffffffffffffffffffffffffffffffffffffffffffffffffffffffffffffff038211156200055157620005506200063c565b5b828201905092915050565b6000620005698262000570565b9050919050565b600073ffffffffffffffffffffffffffffffffffffffff82169050919050565b6000819050919050565b60005b83811015620005ba5780820151818401526020810190506200059d565b83811115620005ca576000848401525b50505050565b60006002820490506001821680620005e957607f821691505b602082108114156200060057620005ff6200066b565b5b50919050565b6200061182620006dd565b810181811067ffffffffffffffff821117156200063357620006326200069a565b5b80604052505050565b7f4e487b7100000000000000000000000000000000000000000000000000000000600052601160045260246000fd5b7f4e487b7100000000000000000000000000000000000000000000000000000000600052602260045260246000fd5b7f4e487b7100000000000000000000000000000000000000000000000000000000600052604160045260246000fd5b600080fd5b600080fd5b600080fd5b600080fd5b6000601f19601f8301169050919050565b7f45524332303a206d696e7420746f20746865207a65726f206164647265737300600082015250565b62000722816200055c565b81146200072e57600080fd5b50565b6200073c8162000590565b81146200074857600080fd5b50565b6113aa806200075b6000396000f3fe608060405234801561001057600080fd5b50600436106100a95760003560e01c80633950935111610071578063395093511461016857806370a082311461019857806395d89b41146101c8578063a457c2d7146101e6578063a9059cbb14610216578063dd62ed3e14610246576100a9565b806306fdde03146100ae578063095ea7b3146100cc57806318160ddd146100fc57806323b872dd1461011a578063313ce5671461014a575b600080fd5b6100b6610276565b6040516100c39190610e45565b60405180910390f35b6100e660048036038101906100e19190610c8f565b610308565b6040516100f39190610e2a565b60405180910390f35b610104610326565b6040516101119190610f47565b60405180910390f35b610134600480360381019061012f9190610c3c565b610330565b6040516101419190610e2a565b60405180910390f35b610152610428565b60405161015f9190610f62565b60405180910390f35b610182600480360381019061017d9190610c8f565b610431565b60405161018f9190610e2a565b60405180910390f35b6101b260048036038101906101ad9190610bcf565b6104dd565b6040516101bf9190610f47565b60405180910390f35b6101d0610525565b6040516101dd9190610e45565b60405180910390f35b61020060048036038101906101fb9190610c8f565b6105b7565b60405161020d9190610e2a565b60405180910390f35b610230600480360381019061022b9190610c8f565b6106a2565b60405161023d9190610e2a565b60405180910390f35b610260600480360381019061025b9190610bfc565b6106c0565b60405161026d9190610f47565b60405180910390f35b60606003805461028590611077565b80601f01602080910402602001604051908101604052809291908181526020018280546102b190611077565b80156102fe5780601f106102d3576101008083540402835291602001916102fe565b820191906000526020600020905b8154815290600101906020018083116102e157829003601f168201915b5050505050905090565b600061031c610315610747565b848461074f565b6001905092915050565b6000600254905090565b600061033d84848461091a565b6000600160008673ffffffffffffffffffffffffffffffffffffffff1673ffffffffffffffffffffffffffffffffffffffff1681526020019081526020016000206000610388610747565b73ffffffffffffffffffffffffffffffffffffffff1673ffffffffffffffffffffffffffffffffffffffff16815260200190815260200160002054905082811015610408576040517f08c379a00000000000000000000000000000000000000000000000000000000081526004016103ff90610ec7565b60405180910390fd5b61041c85610414610747565b85840361074f565b60019150509392505050565b60006012905090565b60006104d361043e610747565b84846001600061044c610747565b73ffffffffffffffffffffffffffffffffffffffff1673ffffffffffffffffffffffffffffffffffffffff16815260200190815260200160002060008873ffffffffffffffffffffffffffffffffffffffff1673ffffffffffffffffffffffffffffffffffffffff168152602001908152602001600020546104ce9190610f99565b61074f565b6001905092915050565b60008060008373ffffffffffffffffffffffffffffffffffffffff1673ffffffffffffffffffffffffffffffffffffffff168152602001908152602001600020549050919050565b60606004805461053490611077565b80601f016020809104026020016040519081016040528092919081815260200182805461056090611077565b80156105ad5780601f10610582576101008083540402835291602001916105ad565b820191906000526020600020905b81548152906001019060200180831161059057829003601f168201915b5050505050905090565b600080600160006105c6610747565b73ffffffffffffffffffffffffffffffffffffffff1673ffffffffffffffffffffffffffffffffffffffff16815260200190815260200160002060008573ffffffffffffffffffffffffffffffffffffffff1673ffffffffffffffffffffffffffffffffffffffff16815260200190815260200160002054905082811015610683576040517f08c379a000000000000000000000000000000000000000000000000000000000815260040161067a90610f27565b60405180910390fd5b61069761068e610747565b8585840361074f565b600191505092915050565b60006106b66106af610747565b848461091a565b6001905092915050565b6000600160008473ffffffffffffffffffffffffffffffffffffffff1673ffffffffffffffffffffffffffffffffffffffff16815260200190815260200160002060008373ffffffffffffffffffffffffffffffffffffffff1673ffffffffffffffffffffffffffffffffffffffff16815260200190815260200160002054905092915050565b600033905090565b600073ffffffffffffffffffffffffffffffffffffffff168373ffffffffffffffffffffffffffffffffffffffff1614156107bf576040517f08c379a00000000000000000000000000000000000000000000000000000000081526004016107b690610f07565b60405180910390fd5b600073ffffffffffffffffffffffffffffffffffffffff168273ffffffffffffffffffffffffffffffffffffffff16141561082f576040517f08c379a000000000000000000000000000000000000000000000000000000000815260040161082690610e87565b60405180910390fd5b80600160008573ffffffffffffffffffffffffffffffffffffffff1673ffffffffffffffffffffffffffffffffffffffff16815260200190815260200160002060008473ffffffffffffffffffffffffffffffffffffffff1673ffffffffffffffffffffffffffffffffffffffff168152602001908152602001600020819055508173ffffffffffffffffffffffffffffffffffffffff168373ffffffffffffffffffffffffffffffffffffffff167f8c5be1e5ebec7d5bd14f71427d1e84f3dd0314c0f7b2291e5b200ac8c7c3b9258360405161090d9190610f47565b60405180910390a3505050565b600073ffffffffffffffffffffffffffffffffffffffff168373ffffffffffffffffffffffffffffffffffffffff16141561098a576040517f08c379a000000000000000000000000000000000000000000000000000000000815260040161098190610ee7565b60405180910390fd5b600073ffffffffffffffffffffffffffffffffffffffff168273ffffffffffffffffffffffffffffffffffffffff1614156109fa576040517f08c379a00000000000000000000000000000000000000000000000000000000081526004016109f190610e67565b60405180910390fd5b610a05838383610b9b565b60008060008573ffffffffffffffffffffffffffffffffffffffff1673ffffffffffffffffffffffffffffffffffffffff16815260200190815260200160002054905081811015610a8b576040517f08c379a0000000000000000000000000000000000000000000000000000000008152600401610a8290610ea7565b60405180910390fd5b8181036000808673ffffffffffffffffffffffffffffffffffffffff1673ffffffffffffffffffffffffffffffffffffffff16815260200190815260200160002081905550816000808573ffffffffffffffffffffffffffffffffffffffff1673ffffffffffffffffffffffffffffffffffffffff1681526020019081526020016000206000828254610b1e9190610f99565b925050819055508273ffffffffffffffffffffffffffffffffffffffff168473ffffffffffffffffffffffffffffffffffffffff167fddf252ad1be2c89b69c2b068fc378daa952ba7f163c4a11628f55a4df523b3ef84604051610b829190610f47565b60405180910390a3610b95848484610ba0565b50505050565b505050565b505050565b600081359050610bb481611346565b92915050565b600081359050610bc98161135d565b92915050565b600060208284031215610be557610be4611107565b5b6000610bf384828501610ba5565b91505092915050565b60008060408385031215610c1357610c12611107565b5b6000610c2185828601610ba5565b9250506020610c3285828601610ba5565b9150509250929050565b600080600060608486031215610c5557610c54611107565b5b6000610c6386828701610ba5565b9350506020610c7486828701610ba5565b9250506040610c8586828701610bba565b9150509250925092565b60008060408385031215610ca657610ca5611107565b5b6000610cb485828601610ba5565b9250506020610cc585828601610bba565b9150509250929050565b610cd881611001565b82525050565b6000610ce982610f7d565b610cf38185610f88565b9350610d03818560208601611044565b610d0c8161110c565b840191505092915050565b6000610d24602383610f88565b9150610d2f8261111d565b604082019050919050565b6000610d47602283610f88565b9150610d528261116c565b604082019050919050565b6000610d6a602683610f88565b9150610d75826111bb565b604082019050919050565b6000610d8d602883610f88565b9150610d988261120a565b604082019050919050565b6000610db0602583610f88565b9150610dbb82611259565b604082019050919050565b6000610dd3602483610f88565b9150610dde826112a8565b604082019050919050565b6000610df6602583610f88565b9150610e01826112f7565b604082019050919050565b610e158161102d565b82525050565b610e2481611037565b82525050565b6000602082019050610e3f6000830184610ccf565b92915050565b60006020820190508181036000830152610e5f8184610cde565b905092915050565b60006020820190508181036000830152610e8081610d17565b9050919050565b60006020820190508181036000830152610ea081610d3a565b9050919050565b60006020820190508181036000830152610ec081610d5d565b9050919050565b60006020820190508181036000830152610ee081610d80565b9050919050565b60006020820190508181036000830152610f0081610da3565b9050919050565b60006020820190508181036000830152610f2081610dc6565b9050919050565b60006020820190508181036000830152610f4081610de9565b9050919050565b6000602082019050610f5c6000830184610e0c565b92915050565b6000602082019050610f776000830184610e1b565b92915050565b600081519050919050565b600082825260208201905092915050565b6000610fa48261102d565b9150610faf8361102d565b9250827fffffffffffffffffffffffffffffffffffffffffffffffffffffffffffffffff03821115610fe457610fe36110a9565b5b828201905092915050565b6000610ffa8261100d565b9050919050565b60008115159050919050565b600073ffffffffffffffffffffffffffffffffffffffff82169050919050565b6000819050919050565b600060ff82169050919050565b60005b83811015611062578082015181840152602081019050611047565b83811115611071576000848401525b50505050565b6000600282049050600182168061108f57607f821691505b602082108114156110a3576110a26110d8565b5b50919050565b7f4e487b7100000000000000000000000000000000000000000000000000000000600052601160045260246000fd5b7f4e487b7100000000000000000000000000000000000000000000000000000000600052602260045260246000fd5b600080fd5b6000601f19601f8301169050919050565b7f45524332303a207472616e7366657220746f20746865207a65726f206164647260008201527f6573730000000000000000000000000000000000000000000000000000000000602082015250565b7f45524332303a20617070726f766520746f20746865207a65726f20616464726560008201527f7373000000000000000000000000000000000000000000000000000000000000602082015250565b7f45524332303a207472616e7366657220616d6f756e742065786365656473206260008201527f616c616e63650000000000000000000000000000000000000000000000000000602082015250565b7f45524332303a207472616e7366657220616d6f756e742065786365656473206160008201527f6c6c6f77616e6365000000000000000000000000000000000000000000000000602082015250565b7f45524332303a207472616e736665722066726f6d20746865207a65726f20616460008201527f6472657373000000000000000000000000000000000000000000000000000000602082015250565b7f45524332303a20617070726f76652066726f6d20746865207a65726f2061646460008201527f7265737300000000000000000000000000000000000000000000000000000000602082015250565b7f45524332303a2064656372656173656420616c6c6f77616e63652062656c6f7760008201527f207a65726f000000000000000000000000000000000000000000000000000000602082015250565b61134f81610fef565b811461135a57600080fd5b50565b6113668161102d565b811461137157600080fd5b5056fea26469706673582212201d8f181073e5b86c65e3e6083b300163cecaad1c83fc9923ff0e4d68674b44bb64736f6c63430008060033",
  "linkReferences": {},
  "deployedLinkReferences": {}
}